:020000040800F2
:10000000B8E20020792000083D0600083F060008FD
:1000100043060008470600084B06000800000000E1
:100020000000000000000000000000004F06000873
:100030005106000800000000EF22000861240008BB
:1000400093200008932000089320000893200008C4
:1000500093200008932000089320000893200008B4
:1000600093200008932000089320000893200008A4
:100070009320000893200008932000089320000894
:100080009320000893200008932000089320000884
:100090009320000893200008932000089320000874
:1000A0009320000893200008932000089320000864
:1000B0009320000893200008932000089320000854
:1000C0009320000893200008932000089320000844
:1000D000932000088D0D000893200008932000084D
:1000E000550600089320000893200008932000087C
:1000F0009320000893200008932000089320000814
:100100009320000893200008932000089320000803
:1001100093200008932000089320000893200008F3
:1001200093200008932000089320000893200008E3
:100130009320000857060008932000089320000829
:1001400093200008932000089320000893200008C3
:1001500093200008932000089320000893200008B3
:1001600093200008932000089320000893200008A3
:100170009320000893200008932000089320000893
:100180009320000893200008DFF80CD00CF014F83E
:10019000004800472D200008B8E2002015E0642345
:1001A00000221146104604F0FDFB4FF480712748F1
:1001B00000F0ADFF642300221146104604F0F2FB6C
:1001C0004FF40071214800F0A2FFE8E708B50020D5
:1001D000009000F0CFF900F0DDF900F0AEFA0BE08E
:1001E0000098801C0090009800F001FA052300227E
:1001F0001146104604F0D6FBF2E700F061FC23E064
:10020000134800F043FCC8B912480068401C11496B
:10021000086008460068202803D181010B4800F0DF
:100220006BFF0C480068402806D14101074800F0E8
:1002300065FF00200749086000F090FA01230022C2
:100240001146104604F0AEFBDAE700000010024051
:10025000C0550020000000201CB50121302001F015
:1002600015F94FF47060009001208DF80400032010
:100270008DF8050069463C4800F0C2FE1020009051
:1002800069463A4800F0BCFE1CBD014601E0481E2C
:1002900001460029FBD1704710B54FF480713248F8
:1002A00000F02CFF4FF400712F4800F027FF4FF4AF
:1002B00080612D4800F022FF4FF400612A4800F0D1
:1002C0001DFF2B48FFF7E1FF4FF48071264800F037
:1002D00013FF4FF40071244800F00EFF4FF48061CB
:1002E000214800F009FF4FF400611F4800F004FFAF
:1002F00010BD10B504464FF480711B4800F0FCFEA1
:100300004FF40071184800F0F7FE4FF48061164872
:1003100000F0F2FE4FF40061134800F0EDFE012CF6
:1003200006D0022C0AD0032C0ED0042C18D111E0D8
:100330004FF480710C4800F0E1FE12E04FF40071C0
:10034000094800F0DBFE0CE04FF48061064800F045
:10035000D5FE06E04FF40061034800F0CFFE00E058
:1003600000BF00BF10BD000000100240001402409A
:10037000FFFF4F0010B5FFF76FFF00F031F800F0FE
:10038000A3FC00F07DFA00F013FA02E006A00BF0E7
:1003900051FF00F003FB0028F8D14FF480610F48B3
:1003A00000F0AAFE10BD0000C3BBD3D0BCECB2E28B
:1003B000B5BD4E524632344C3031A3ACC7EBC8B752
:1003C000C8CF4E524632344C3031CAC7B7F1C1ACF7
:1003D000BDD3C9CFA3A10A0D000000000010024048
:1003E00008B500214FF0006000F066FD4FF440704A
:1003F00000F028FD3D208DF8000000208DF8010060
:100400008DF8020001208DF80300684600F01FFD02
:1004100008BD000000B5AFB001214FF0606001F0F1
:1004200035F80AF07BFF0BF000FD00BF0BF004FD78
:100430000128FBD068460AF07CFF012000900020D4
:1004400007904FF400700A9000200B900E901190CE
:100450001390149015904FF4806009900020209024
:100460004FF00070219000112390002025902690DD
:1004700004202890C005299040122A9080012B90DA
:1004800040122C9040002E90012168460BF00BF892
:1004900001213C480BF0E7FC2FB000BD08B54FF43C
:1004A000407000F0CFFC3D208DF8000000208DF85A
:1004B00001008DF8020001208DF80300684600F06D
:1004C000C6FC08BD1CB501214D2000F0DFFF012155
:1004D000880301F01FF8012001F041FB03208DF893
:1004E000050002208DF8040000208DF806008DF82C
:1004F0000700862000906946234800F081FD0B220A
:100500000121214800F007FE0B2202211E4800F0C5
:1005100002FE0B2207211C4800F0FDFD3220009056
:1005200069461A4800F06CFD0B220121174800F0C3
:10053000F2FD0B220421154800F0EDFD0B220521F0
:10054000124800F0E8FD4FF4D04000906946104892
:1005500000F056FD0B2211460D4800F0DCFD0B2289
:100560000D210B4800F0D7FD0B220E21084800F0AA
:10057000D2FD1CBD10B5FFF7A5FFFFF78FFFFFF7FA
:1005800049FF10BD40000100000002400008024089
:100590000018024000B587B006F036FC06F09CFD5E
:1005A000204804F07DFD06906FF0FF0004F078FD18
:1005B00005901C486D3804F073FD04901A481B49DF
:1005C000002204ABCDE90021029005AA06A9184833
:1005D00006F02DFE164806F05CFE154806F0A1FE5A
:1005E00007B000BD10B512480AF04EFE10BD01B5AF
:1005F000104900980968401AFA2804D30D49009858
:10060000086007F065FD0C4900980968401A41F23E
:100610008831884204D30849009808600AF0EFF84E
:1006200008BD00006EE10C0AC3B00008B5B20008B6
:10063000E05500200400002008000020704700BFA3
:10064000FEE700BFFEE700BFFEE700BFFEE7704722
:1006500070477047704710B501F028FE04460C48FB
:100660000078401C0A490870204601F023FE01E092
:10067000FFF7B8FF0BF0A8FA0028F9D140200BF0E3
:1006800009FC4FF480300BF005FC02F0B6FA10BD07
:100690006D0000202DE9F05F83460F461546984611
:1006A000DDF828A00026A946394807603948D8F85F
:1006B000001001603848A0F800A0D9F80440207864
:1006C000F02833D100203549088000BF06E0A05D46
:1006D00032490988084431490880761C052EF6DB2A
:1006E0002E4800782D4908806079098888421DD1FC
:1006F000A0782B4908702079012803D126202949A8
:1007000008700CE02079022803D1062025490870E2
:1007100005E02079032802D10F2022490870E078F3
:10072000022803D1FFF7B8FD00F0CAF9D9F800900C
:10073000284606F029FEBDE8F09F10B50AF037F80C
:10074000044640F206421849204609F017FF0022ED
:10075000AFF2BF0120460AF009F810BD10B5002223
:100760001921104606F047FE04467CB119220F49B4
:1007700060680BF0EFFC08480388064A21460448ED
:10078000006809F095FF204606F0FEFD10BD000050
:100790001C0000201400002018000020120000207F
:1007A00020000020210000208EC30008C05500203A
:1007B0001CB50121102000F069FE4FF4704000903C
:1007C00003208DF8050000208DF8040069462B48B1
:1007D00000F016FC1CBD00E0401E0028FCD1704754
:1007E00010B54FF48051254800F06CFC58B94FF615
:1007F000FF70FFF7F0FF4FF48051204800F062FCDB
:10080000B8BB012010BD4FF400511C4800F05AFC49
:1008100058B94FF6FF70FFF7DEFF4FF4005117484D
:1008200000F050FC28BB0220ECE74FF48041134855
:1008300000F048FC58B94FF6FF70FFF7CCFF4FF4BB
:1008400080410E4800F03EFC98B90320DAE74FF4EF
:1008500000410A4800F036FC60B94FF6FF70FFF720
:10086000BAFF4FF40041054800F02CFC08B9042001
:10087000C8E701E00020C5E70020C3E70010024000
:100880001CB50121402000F001FE40200090012015
:100890008DF8040000208DF8060003208DF8050077
:1008A00001208DF807006946B74800F0A9FB012137
:1008B000402000F0EBFD8020009001208DF8040026
:1008C00000208DF8060003208DF8050001208DF82A
:1008D00007006946AC4800F093FB4021AA4800F0AD
:1008E0000BFC8021A84800F007FC4FF480700090BA
:1008F00000208DF8040002208DF805006946A2480A
:1009000000F07EFB4FF480719F4800F0F5FB00F093
:1009100070F940219C4800F0F1FB80219A4800F0DA
:10092000EBFB1CBD2DE9F04107460D461646802124
:10093000954800F0E3FB384600F034F98046002487
:1009400005E0FF2000F02EF92855601CC4B2B44227
:10095000F7DB80218C4800F0CFFB4046BDE8F081FA
:100960002DE9F04107460C4615468021864800F0E7
:10097000C5FB384600F016F98046002605E014F85D
:10098000010B00F00FF9701CC6B2AE42F7DB8021FC
:100990007D4800F0B1FB4046BDE8F0811FB57BA16A
:1009A00003C9CDE90201052202A93020FFF7D8FFD3
:1009B000052269461020FFF7B5FF002406E01DF868
:1009C0000400A52800D003E0601CC4B2052CF6DBAF
:1009D00000BF052C02D0012004B010BD0020FBE7B1
:1009E00070B505460C468021674800F087FB284615
:1009F00000F0D8F80646204600F0D4F8802162487E
:100A000000F07AFB304670BD70B5044680215E4828
:100A100000F074FB204600F0C5F8FF2000F0C2F89B
:100A200005468021584800F067FB284670BD70B528
:100A300005464021544800F061FB19222946A020B8
:100A4000FFF78EFF4021504800F056FB00BF4FF4E7
:100A500080714D4800F036FB0028F8D10720FFF7E1
:100A6000D3FF044621462720FFF7BAFF04F0100009
:100A700028B1FF21E120FFF7B3FF102070BD04F083
:100A8000200008B12020F9E7FF20F7E770B5044601
:100A90000720FFF7B9FF054629462720FFF7A0FFEB
:100AA00005F0400050B1192221466120FFF73AFFBE
:100AB000FF21E220FFF794FF002070BD0120FCE73A
:100AC00010B54021304800F019FB03210846FFF71C
:100AD00087FF05222F492A20FFF742FF002121200E
:100AE000FFF77EFF01212220FFF77AFF2A480178D5
:100AF0002520FFF775FF19213120FFF771FF2748E7
:100B000001782620FFF76CFF0F212020FFF768FFF8
:100B100040211D4800F0F0FA10BD10B540211A48E0
:100B200000F0ECFA03210846FFF75AFF05221C49A2
:100B30003020FFF715FF052216492A20FFF710FF86
:100B400019213120FFF74CFF00212120FFF748FF3A
:100B500000212220FFF744FF00212420FFF740FF5F
:100B60000D4801782520FFF73BFF0C48017826202F
:100B7000FFF736FF0E212020FFF732FF4021024809
:100B800000F0BAFA10BD000000180240A5A5A5A506
:100B9000A500000089C200082000002021000020DC
:100BA00084C2000870B50546002405E0601CC4B28C
:100BB000C82C01DD002070BD0221394800F065FF1E
:100BC0000028F3D02946364800F028FF002400BF53
:100BD0000121334800F059FF0028F9D0601CC4B24D
:100BE000C82C01DD0020E6E72D4800F014FFC0B25C
:100BF000E1E700B587B02A4800F086FD0121C8036F
:100C000000F077FC0121022000F040FC06220321C5
:100C1000244800F080FA06220421224800F07BFAE2
:100C2000062205211F4800F076FA02208DF8040004
:100C300003208DF8050000208DF8060001208DF8B6
:100C40000700382000906946164800F0D9F90020C6
:100C5000ADF808004FF48270ADF80A000020ADF83E
:100C60000C00ADF80E00ADF810004FF40070ADF8B8
:100C700012001020ADF814000020ADF81600072077
:100C8000ADF8180002A9064800F064FD01210448EF
:100C900000F043FEFF20FFF785FF07B000BD000016
:100CA000003C00400004024070B504460D46E1B22D
:100CB0005F4801F06CF800BF40215D4801F017F972
:100CC0000028F9D0204670BD00B589B00121092067
:100CD00000F0DCFB0121102000F01CFC544800F067
:100CE00055FF03A801F006F801A801F01FF8022043
:100CF0008DF820008DF8210000208DF822000120C1
:100D00008DF823004002079007A94A4800F078F9BF
:100D100007220921474800F0FEF94FF48060079050
:100D200007A9444800F06CF907220A21414800F065
:100D3000F2F901A93E4800F0E9FF4FF4E1300390D9
:100D40004FF48050ADF810000020ADF812004FF4C1
:100D50008060ADF814000020ADF818000C20ADF84C
:100D6000160003A9324800F05FFF012240F225512E
:100D70002F4801F097F840F226612D4801F004F960
:100D800001212B4800F0D8FF09B000BD10B540F29A
:100D90002551274801F0C1F850B3254880882649DD
:100DA000264A1268885425480068401C2349086078
:100DB0000846006802280FD308460068801E1E49B6
:100DC000085C3F2808D11D480068401E085C3B288D
:100DD00002D101201A49087018480068642802D915
:100DE00000201649086040F22551114801F0CCF866
:100DF00040F227710E4801F090F820B140F22771BF
:100E00000B4801F0C1F810BD10B50246002000BF2C
:100E10000AE0135C064CA38000BF054B1B8803F05F
:100E20004003002BF9D0401C8842F2D310BD0000D3
:100E30000010014000000240185600202800002049
:100E40002400002032490143324A1160704770B5D6
:100E5000002100230F22C4781CB32E4C246804F414
:100E6000E064C4F5E064C4F30721C1F10404E3B213
:100E70000A4144789C40E1B28478144021430C0735
:100E8000210E254C05786155047804F01F050124D6
:100E9000AC4005786D11AD0005F1E025C5F80041C5
:100EA00009E0047804F01F050124AC401B4D0678CE
:100EB000761145F8264070BD194A0A400243154B89
:100EC0001B1F1A60704739B1124A121D1268024383
:100ED000104B1B1D1A6006E00E4A121D1268824359
:100EE0000C4B1B1D1A607047042808D14FF0E021FD
:100EF000096941F004014FF0E022116107E04FF071
:100F0000E021096921F004014FF0E02211617047EE
:100F10000000FA050CED00E000E400E080E100E0F4
:100F200080FFFF1F10B504468C48844208D1012180
:100F3000084600F000FB0021012000F0FCFA5EE012
:100F40008748844208D10121022000F0F4FA0021F0
:100F5000022000F0F0FA52E08248844208D10121D8
:100F6000042000F0E8FA0021042000F0E4FA46E052
:100F70007D48844208D10121082000F0DCFA0021DC
:100F8000082000F0D8FA3AE07848844208D10121DC
:100F9000102000F0D0FA0021102000F0CCFA2EE052
:100FA0007348844208D10121202000F0C4FA0021B6
:100FB000202000F0C0FA22E06E48844208D10121CE
:100FC000402000F0B8FA0021402000F0B4FA16E00A
:100FD0006948844208D10121802000F0ACFA002148
:100FE000802000F0A8FA0AE06448844207D1012179
:100FF000801500F0A0FA0021A01500F09CFA10BDA9
:10100000F0B50A4600210023002400BF3DE0012581
:1010100005FA01F3156805EA03049C4234D105681A
:101020004F000326BE40B543056015794E00B5401C
:101030000668354305601579012D02D01579022D1A
:1010400016D185684F000326BE40B54385605579AB
:101050004E00B540866835438560456801268E4060
:10106000B5434560456896798E40B6B235434560D4
:10107000C5684F000326BE40B543C560D5794E0014
:10108000B540C6683543C560491C1029BFD3F0BDC3
:101090004FF6FF7101600021017141718171C171D1
:1010A000704708B54FF480320092009A0A430092CC
:1010B000009AC261C161009AC261C2690092C269AC
:1010C000009208BD0246002013690B400BB10120BD
:1010D00000E0002070470146086980B27047024670
:1010E000002053690B400BB1012000E00020704745
:1010F0000146486980B27047018370474183704759
:101100000AB1018300E04183704741617047426941
:101110004A4042617047F0B5002300244D07ED0EB0
:1011200002FA05F3CE1000F1200555F826504E07BF
:10113000F70E0F26BE40B543CF1000F1200646F84B
:101140002750CE1000F1200555F8265045EA03043B
:10115000CE1000F1200545F82640F0BD0000024009
:101160000004024000080240000C0240001002404F
:101170000014024000180240001C024000200240FF
:10118000FA48006840F00100F84908600020F7497B
:1011900008310860F5480068F5490840F3490860DF
:1011A000F448091D0860081F006820F48020091F0A
:1011B00008600020ED490C31086070470021EB4ABF
:1011C000921C117011460870704710B5014600223C
:1011D000002300204A11012A02D1E44C236808E0D0
:1011E000022A03D1E14C7034236802E0DF4C7434EE
:1011F000236801F01F02012494401C400CB101201F
:1012000000E0002010BD38B500200090002400252B
:1012100000BF3120FFF7D9FF05460098401C009021
:101220000098B0F5A06F01D0002DF2D03120FFF76B
:10123000CCFF08B1012400E00024204638BD01465F
:101240000020CA4A106820F0F80040EAC10010608F
:101250007047C949086070470021C44A7032117054
:101260001170012802D004280AD104E00121BF4AEC
:101270007032117005E00521BC4A7032117000E037
:1012800000BF00BF7047BD490860704770B5049C3F
:1012900041EA82150126C6EB530645EA0645054399
:1012A00045EA0465B14E361D356070BDB249086629
:1012B0007047820142EA0172AC4B84331A60704776
:1012C000AD4988667047AC49C86470470246002043
:1012D000A64B0833186820F0EC6042EA010318437B
:1012E000A24B083318607047024600209F4B08331A
:1012F000186820F0784042EA010318439B4B0833FA
:101300001860704701460020984A0832106820F0A3
:10131000030008431060704794480830006800F0EC
:101320000C00704701460020904A0832106820F0F7
:10133000F000084310607047014600208B4A0832D5
:10134000106820F4E0500843106070470146002008
:10135000864A0832106820F4604040EAC1001060FC
:101360007047F0B500210022002402250026022348
:101370007E4F08373F6807F00C0121B1042905D0E2
:10138000082937D105E07E4F076036E07D4F0760C2
:1013900033E0764F3F1D3F68C7F38056734F3F1DC4
:1013A0003F6807F03F036EB1764FB7FBF3F7DFF806
:1013B000BCC10CF1040CDCF800C0CCF3881C07FBAA
:1013C0000CF40CE06E4FB7FBF3F7DFF8A0C10CF1A3
:1013D000040CDCF800C0CCF3881C07FB0CF4634F52
:1013E0003F1D3F68C7F301477F1C7D00B4FBF5F745
:1013F000076002E0624F076000BF00BF5B4F083725
:101400003F6807F0F00109095F4F7A5C0768D74031
:101410004760564F08373F6807F4E051890A5A4F32
:101420007A5C4768D7408760504F08373F6807F4B9
:101430006041490B544F7A5C4768D740C760F0BDA4
:10144000002100F44072B2F5407F0AD1474A0832C9
:10145000116821F4F8114D4A02401143434A083201
:101460001160424A70321268C0F30B031A433F4BBB
:1014700070331A60704741494439086070473F49EA
:1014800040390860704742490860704739B1374AAF
:10149000303212680243354B30331A6006E0334A6B
:1014A000303212688243314B30331A60704739B1A1
:1014B0002E4A3432126802432C4B34331A6006E051
:1014C0002A4A343212688243284B34331A607047F8
:1014D00039B1264A383212680243244B38331A6035
:1014E00006E0224A383212688243204B38331A60B1
:1014F000704739B11D4A4032126802431B4B4033DA
:101500001A6006E0194A403212688243174B403392
:101510001A60704739B1154A443212680243134BBE
:1015200044331A6006E0114A4432126882430F4B7A
:1015300044331A60704739B10C4A103212680243C2
:101540000A4B10331A6006E0084A103212688243D0
:10155000064B10331A607047E1B1044A1432126826
:101560000243024B14331A6019E0000000380240B5
:10157000FFFFF6FE1030002400004742800E474275
:101580000024F40040787D0130000020FFFCFF0FB4
:101590005C0147425B4A126882435A4B1A607047AB
:1015A00039B1584A121D12680243564B1B1D1A606E
:1015B00006E0544A121D12688243524B1B1D1A60EA
:1015C000704739B14F4A0C32126802434D4B0C330D
:1015D0001A6006E04B4A0C3212688243494B0C33C6
:1015E0001A60704739B1474A103212680243454BBE
:1015F00010331A6006E0434A103212688243414BAE
:1016000010331A60704739B13E4A3C3212680243C7
:101610003C4B3C331A6006E03A4A3C321268824343
:10162000384B3C331A60704739B1364A4032126841
:101630000243344B40331A6006E0324A40321268AB
:101640008243304B40331A60704739B12D4A4432DF
:10165000126802432B4B44331A6006E0294A443295
:1016600012688243274B44331A60704739B1254AC8
:101670004C3212680243234B4C331A6006E0214A75
:101680004C32126882431F4B4C331A60704739B199
:101690001C4A5032126802431A4B50331A6006E05B
:1016A000184A503212688243164B50331A60704702
:1016B00039B1144AD21F12780243124BDB1F1A7041
:1016C00006E0104AD21F127882430E4BDB1F1A70BD
:1016D00070470C486030006840F080700949603104
:1016E0000860704701460020064A083A12680A401E
:1016F0000AB1012000E0002070470249891F0870EC
:10170000704700001438024010B50446F748844280
:1017100008D101218014FFF765FF0021A014FFF715
:1017200061FF16E0F248844208D101210014FFF75E
:1017300048FF00212014FFF744FF0AE0ED488442EF
:1017400007D10121C013FFF73CFF0021E013FFF791
:1017500038FF10BD10B50022028802F441520B88F8
:101760004C8823438C882343CC8823430C89234310
:101770004C8923438C892343CC8923431A43028019
:10178000838B4FF2FF74234083830B8A038210BD47
:101790002DE9F04F00250223002401270022002616
:1017A000944690469146B0F81CA04FF2400B0AEACE
:1017B0000B0AA0F81CA04FF0020AA0F820A0858B0D
:1017C000D1F808A0BAF1020F01D100BF6CE0B1F866
:1017D00004A0BAF1000F01D1012700E00227DFF8D1
:1017E00018A3DAF800A00AF4000ABAF1000F09D031
:1017F000DFF804A3DAF800A02AF4000ADFF8F8B250
:10180000CBF800A0DFF8F0A20AF17C0ADAF800A019
:10181000CAF38818DFF8E0A20AF17C0ADAF800A01F
:10182000CAF30279DFF8D0A2AAF1040ADAF800A01C
:101830000AF03F0CDFF8C4A2BAFBFCFA0AFB08FA74
:10184000BAFBF9F6B1F806A0BAF5007F0ED14FEA5F
:10185000162A0AEB8A0A4FEA4A0AD1F808B0BAFBFC
:10186000FBFA0AF1050A1FFA8AF20FE04FEA471A5B
:10187000B6FBFAFA0AEB8A0A4FEA4A0AD1F808B02C
:10188000BAFBFBFA0AF1050A1FFA8AF24FF00A0ABC
:10189000B2FBFAF202F00104A2EB040ACAF34F030E
:1018A0004FF6FF7A0AEA0424022B01DBFF2B01DD4D
:1018B00002230024B1F806A04AEA040A4AEA030A0D
:1018C000A0F820A0B1F804A0B1F80CB04AEA0B0AC5
:1018D000B1F802B04AEA0B0AB1F800B04AEA0B0AC2
:1018E0004AF4006A4AEA05058583BDE8F08F0021C5
:1018F000018041808180C180018141818181C181DC
:101900000721018270470021018041808180C180D0
:101910000221816000218181704721B1028842F05B
:101920004002028004E002884FF6BF731A40028032
:10193000704721B1828B42F48062828304E0828B03
:101940004FF6FF331A408283704702884FF2FF73CD
:101950001A40028002880A4302807047B1F5804F26
:1019600004D1028842F48042028004E002884BF6EF
:10197000FF731A40028070474FF6FF62914204D015
:10198000028842F48072028004E002884FF6FF630E
:101990001A400280704721B1828842F0040282809E
:1019A00004E082884FF6FB731A408280704721B1B1
:1019B000828842F01002828004E082884FF6EF7342
:1019C0001A408280704730B500220023848B4FF28A
:1019D00040052C40848302240484828B0C88B4F557
:1019E000007F01D00C8814B94FF4807308E00C8894
:1019F000B4F5407F03D00C88B4F5807F00D100237C
:101A00008C888D892C434D882C431C4344F40064FE
:101A10002243828330BD01468889704781817047A7
:101A200021B1028842F40052028004E002884DF69F
:101A3000FF731A4002807047018841F48051018091
:101A4000704702460020012901D0108B00E0908AE7
:101A500070470146088A70471AB183880B43838018
:101A600002E083888B438380704730B500240023D5
:101A70000C110125A540ABB21AB185881D438580A4
:101A800002E085889D43858030BD02460020138991
:101A90000B400BB1012000E000207047CA430281D7
:101AA0007047F0B50246002000240023002501F015
:101AB0000F070126BE40B4B20B1101269E40B3B2FF
:101AC000968806EA03051689264016B10DB1012055
:101AD00000E00020F0BD10B5002201F00F0401234A
:101AE000A3409AB2D343038110BD000000300140EF
:101AF00000380040003C00400838024040787D013A
:101B000010B501218803FFF76DFD00214FF48040DF
:101B1000FFF768FD10BD1A490860704730B5002214
:101B20008B071C0F0F2303FA04F2154B08338C109C
:101B300053F824309343124C08348D1044F8253068
:101B400023468C1053F824308C07240F00FA04F439
:101B500023430B4C08348D1044F8253030BD09491F
:101B60000860704708490860704700200449203128
:101B7000096801F4807109B1012000E0002070477C
:101B800000380140DC0027420004274210B504461B
:101B9000F748844208D101211020FFF723FD0021DE
:101BA0001020FFF71FFD3EE0F248844209D10121D9
:101BB0004804FFF706FD00214FF40030FFF701FD58
:101BC00031E0ED48844209D101218804FFF7F9FC96
:101BD00000214FF48020FFF7F4FC24E0E748844222
:101BE00009D10121C804FFF7ECFC00214FF40020CB
:101BF000FFF7E7FC17E0E248844209D1012108051C
:101C0000FFF7DFFC00214FF48010FFF7DAFC0AE059
:101C1000DC48844207D101212020FFF7E3FC0021AA
:101C20002020FFF7DFFC10BD2DE9FF4705460E46DB
:101C30000024A14600BFA046B08900B100BF2C8A95
:101C400024F44054F08804432C82AC8941F20C60A7
:101C50008443B08831890843718908430443AC81C7
:101C6000AC8A24F44074B0890443AC826846FFF720
:101C700078FBBF48854202D0C248854202D1DDF8D8
:101C80000C9001E0DDF80890A88900F4004040B114
:101C900009EBC90000EB091031684900B0FBF1F70E
:101CA00007E009EBC90000EB091031688900B0FBBF
:101CB000F1F76420B7FBF0F004012009642101FB77
:101CC0001078A88900F4004040B1322000EBC80031
:101CD000B0FBF1F000F00700044308E0322000EB15
:101CE00008106421B0FBF1F000F00F0004432C81D8
:101CF000BDE8FF874FF41651016000218180C1804B
:101D000001810C21418100218181704710B502467B
:101D10000020108A20F470600B884C8823438C8844
:101D20002343CC8823431843108210BD0021018037
:101D300041808180C180704721B1828942F4005284
:101D4000828104E082894DF6FF731A4082817047D8
:101D5000028B02F47F420283028B0A4302837047A4
:101D600021B1828942F40042828103E08289C2F378
:101D70000E028281704721B1828A42F4006282821F
:101D800004E0828A4FF2FF731A4082827047C1F3E7
:101D900008028280704701468888C0F308007047B7
:101DA000028A4FF6F0731A400282028A0A430282C4
:101DB000704721B1828942F00202828104E0828967
:101DC0004FF6FD731A408281704782894FF2FF738C
:101DD0001A40828182890A4382817047028A4FF6C3
:101DE000DF731A400282028A0A430282704721B1DD
:101DF000028A42F48042028204E0028A4BF6FF73B8
:101E00001A4002827047818941F001018181704747
:101E100021B1828A42F00802828204E0828A4FF66F
:101E2000F7731A4082827047028BD2B20283028B10
:101E300042EA01220283704721B1828A42F02002E5
:101E4000828204E0828A4FF6DF731A4082827047F2
:101E500021B1828A42F01002828204E0828A4FF627
:101E6000EF731A4082827047828A4FF6FB731A40E2
:101E70008282828A0A438282704721B1828A42F03A
:101E80000202828204E0828A4FF6FD731A40828247
:101E900070471AB1838A0B43838202E0838A8B43A3
:101EA00083827047F0B503460024002600250020F9
:101EB00040F66A17B94200D100BF1846C1F3421478
:101EC00001F01F06012707FA06F5012C01D10C309D
:101ED00004E0022C01D1103000E014301AB1076880
:101EE0002F43076002E00768AF430760F0BD02467A
:101EF0000020B1F5007F00D100BF13880B400BB16B
:101F0000012000E00020704701F40072B2F5007F6C
:101F100000D100BFCA430280704770B5024600245A
:101F200000230025002040F66A16B14200D100BF10
:101F3000C1F3421501F01F03012606FA03F3012D38
:101F400002D19689334006E0022D02D1168A334031
:101F500001E0968A33400C12012606FA04F4168832
:101F6000344013B10CB1012000E0002070BD00002E
:101F7000001001400044004000480040004C004078
:101F8000005000400014014010B50022002340F62C
:101F90006A14A14200D100BF0A1201249440A3B2E6
:101FA000DC43048010BD00002A4800684FF47A72B8
:101FB000B0FBF2F0411EB1F1807F00D31DE021F0B3
:101FC0007F40401E4FF0E022506150170F22002842
:101FD00007DA13071D0E204B00F00F04241F1D55B8
:101FE00003E013071C0E1D4B1C5400BF00204FF0D4
:101FF000E02290610720106100BF0923184A0021E8
:10200000184802F053F90823174A0021174802F034
:102010004DF90AE010211648FFF779F84FF4FA73EA
:1020200000221146104602F0BDFCF3E710B5FEF7A2
:10203000A1F900F0B4FD3B230E4A0021AFF2970056
:1020400002F034F9002002F033FD00F099FE002088
:1020500010BD00004000002018ED00E000E400E0AA
:10206000DC260020CD010008BC550020FB01000843
:10207000001402406C58002006488047064800477C
:10208000FEE7FEE7FEE7FEE7FEE7FEE7FEE7FEE728
:10209000FEE7FEE779210008890100080CB5002061
:1020A000019000907648006840F4803074490860E0
:1020B00000BF7348006800F4003000900198401C95
:1020C0000190009818B90198B0F5A06FF1D16C4853
:1020D000006800F4003010B10120009001E0002001
:1020E00000900098012846D165484030006840F0D3
:1020F00080506349403108606248006840F4804085
:10210000604908605E48083000685D490831086031
:102110000846006840F4004008600846006840F443
:10212000A05008605848091F0860081F006840F068
:102130008070091F086000BF5148006800F00070FF
:102140000028F9D040F20560504908604C4808303A
:10215000006820F003004A4908310860084600681A
:1021600040F00200086000BF45480830006800F0F9
:102170000C000828F8D10CBD10B54548006840F4A3
:102180007000434908603E48006840F001003C4947
:10219000086000203A4908310860394800683D4924
:1021A0000840374908603C48091D0860081F00685E
:1021B00020F48020091F0860002031490C3108609C
:1021C000FFF76CFF4FF0006031498039086010BDA7
:1021D00070B500200022022300240221284D08357A
:1021E0002D6805F00C0020B1042806D0082834D151
:1021F00007E02A4D2A4E356033E02A4D284E3560DF
:102200002FE01F4D2D1D2D68C5F380541C4D2D1D35
:102210002D6805F03F0154B1224DB5FBF1F5184E84
:10222000361D3668C6F3881605FB06F209E01B4D1D
:10223000B5FBF1F5124E361D3668C6F3881605FB60
:1022400006F20F4D2D1D2D68C5F301456D1C6B0069
:10225000B2FBF3F5124E356003E0104D104E3560C1
:1022600000BF00BF064D08352D68C5F303150E4E9F
:10227000705D0B4D2D68C540094E356070BD000086
:10228000003802400070004019544005003C0240F4
:1022900088ED00E0FFFFF6FE103000240024F4007B
:1022A0004000002040787D0144000020EFF31080C2
:1022B00072B6704780F31088704725484FF0FF01D1
:1022C0000170002080F30988224801210170224812
:1022D0004FF08051016062B6FEE71F484FF0805119
:1022E000016070471C484FF080510160704772B622
:1022F000EFF3098050B1A0F1200080E8F00FA0F1C9
:10230000400080EC108B15490968086000B514483E
:1023100080475DF804EB134813490A7802700F48B0
:1023200012490A680260106890EC108B00F14000BE
:1023300090E8F00F00F120002EF0100E80F30988D5
:102340004EF0040E62B6704772B6704762B67047C0
:1023500022ED00E07A00002004ED00E08000002083
:102360005D2400086F00002070000020880000201D
:1023700010B5FFF7E9FF10BD10B5FFF7E7FF10BD7F
:1023800070477047704770477047F0B504460D4678
:102390001046CC260660DD27061F30463760002138
:1023A00005E04FF0AA37061F30463760491C102958
:1023B000F7D34FF08077061F30463760061F304650
:1023C00034603A4F061F304637604FF01237061F11
:1023D000304637604FF00337061F304637604FF006
:1023E0000237061F304637607F10061F30463760C1
:1023F000061F304635604FF01137061F30463760F4
:102400004FF01037061F304637604FF00937061F70
:10241000304637604FF00837061F304637604FF0C0
:102420000737061F304637604FF00637061F304625
:1024300037604FF00537061F304637604FF00437DE
:10244000061F30463760002105E04FF0BB37061FFE
:1024500030463760491C1029F7D3F0BD70477047EC
:1024600010B5FFF723FF044611480078401C1049BF
:1024700008702046FFF71EFF00F0B9FC00F0BDFB1E
:1024800010BD411E4FF0E0225161FF21094A117039
:102490004FF0E021096941F005014FF0E0221161A0
:1024A0001146096941F00201116170471F49000896
:1024B0006D00002023ED00E00146002002E0491CF1
:1024C000421CD0B20A78002AF9D170472DE9F041B8
:1024D00005460E4614460027FA48007820B1112020
:1024E00020700020BDE8F0812878012808D002285B
:1024F00007D0032802D0042804D100E000BF00BFA9
:1025000000BF03E0012020700020EBE700BFFFF7D1
:10251000CDFE0746686930603068FFF7CDFF804622
:102520003846FFF7C7FE002020704046DAE72DE965
:10253000F04105460E4614460027E248007818B1DF
:1025400012202070BDE8F0812878012808D00228E8
:1025500007D0032802D0042804D100E000BF00BF48
:1025600000BF02E001202070ECE700BFFFF79EFEF5
:1025700007466E613846FFF79DFE0020207000BFC1
:10258000E0E7F0B5024612F8384F95785678383AB9
:102590000B4618680FE000F10B073F5DB74300F1F1
:1025A0000B0C0CF8047067463F5D17B9877AAF4390
:1025B00087721B1D18680028EDD1F0BDC249C34ABF
:1025C0001278885CC249095CBF4A515C01EBC001CA
:1025D000C04A1170704710B50024FFF767FE04462B
:1025E000B8480078F8B9BC480078E0B9FFF7E6FFD2
:1025F000BA48B849097850F82100B9490860B54887
:102600000078B849097888420DD0B5480068C06B99
:10261000401CB3490968C863B3480068401CB2490C
:102620000860FFF75AFE2046FFF744FE10BD70B564
:1026300001460024AD4D2D68EC61AC4C246821624C
:102640000B4618681BE0A94C246894F8385000F138
:102650000B04645DA54D2D6895F839502C43A34DAE
:102660002D6895F8386000F10B05AC55847A9F4DC4
:102670002D6895F83A502C4384721B1D1868002869
:10268000E1D19A4C246894F83820914CA45C974D81
:102690002D6895F83950AC438D4DAC542C46A45C54
:1026A00044B9924C246894F83A50884C2478AC434E
:1026B000864D2C7070BD2DE9FF4F83B081460E46CC
:1026C0001546DDF84080002000903060CA46DAF8F8
:1026D000004018E02078062807D2DFE800F0060462
:1026E000050307080AE009E008E000BF00BF012079
:1026F00088F80000002007B0BDE8F08F00BF0AF1A5
:10270000040ADAF80040002CE4D16E48007820B1C9
:10271000022088F800000020EDE76F48007820B123
:102720000D2088F800000020E5E7FFF7BFFD0090CE
:102730000020029083460190CA46DAF800405DE02E
:102740002078062849D2DFE800F048172A03494AD2
:10275000208960B12089401E208110C6012002908E
:10276000002001C50BF101001FFA80FB03E0019876
:1027700040F0010001903CE0606858B1606801C51C
:102780000020606010C6012002900BF101001FFACA
:1027900080FB03E0019840F00200019029E06768A7
:1027A000F88AA8B13969081D3861086801C5B96897
:1027B0003869884201D178683861F88A401EF88209
:1027C00010C6012002900BF101001FFA80FB03E00C
:1027D000019840F0040001900BE000BF00BF00989A
:1027E000FFF768FD00203060012088F8000058469F
:1027F00081E700BF0AF1040ADAF80040002C9FD1FB
:102800000298012809D1002030600098FFF752FD9E
:10281000002088F8000058466DE73448006890F8BA
:102820003400019941F0800108433049096881F87A
:10283000340000202D49096881F835002B4906989D
:10284000096808634846FFF7F2FE0098FFF732FD7B
:10285000FFF7C1FEFFF72AFD00902448006890F8BA
:10286000350020B101281BD0022818D100E000BF9C
:102870001E480068C4693CB110C6002030600BF1EE
:1028800001001FFA80FB09E001201849096881F85E
:102890003500494615480068FFF773FE06E000BFA3
:1028A000494612480068FFF76CFE00BF00BF0F48A2
:1028B000006890F83500D8B1012842D002283FD1F5
:1028C00038E000006D0000208EC20008710000207A
:1028D00072000020700000206E000020B05D00201B
:1028E000880000206F00002054000020800000209D
:1028F000207806280DD2DFE800F00C0607030D0E45
:10290000002001C511E000BFF7480068406A01C51A
:102910000BE000BF00BF0098FFF7CCFC0020306048
:10292000012088F800005846E5E600BF002088F83E
:1029300000000CE0002001C50E2088F8000006E031
:1029400000BF002001C50A2088F8000000BF00BFBA
:102950000020E549096881F83400E349096881F8F5
:102960003500E1490968C861DF4909680862DE4944
:10297000096848620098FFF79DFC5846BBE67CB5A5
:10298000002514E06946284601F0D5FE064666B9E2
:10299000D64850F8254044B1012C06D0D4E90201B4
:1029A00000EB8100A0640198E064681CC5B23F2D73
:1029B000E8D97CBD002402E0C82001F0C5FFCC4866
:1029C00000780028F8D0CB4800686421B0FBF1F013
:1029D000C84908600846006828B90020C649087040
:1029E000FF2001F0EAFE00BFFFF760FC0446C34889
:1029F0000068C34908600020C04908602046FFF70E
:102A000059FCBF480068BB490968B0FBF1F0C0F150
:102A10006400B9490870FFF7B7FCFFF7B0FF642006
:102A200001F092FFE0E700B587B00320002180228B
:102A3000B44BCDE90132CDE903104FF6FE703E23D1
:102A4000B14A0090AFF2930001F087FC06AAAFA153
:102A50003E2001F0F2FD07B000BD002400BFFFF7EB
:102A600025FC0446A5480068401CA449086020468F
:102A7000FFF720FCFFF786FCF1E700B587B00320E5
:102A800000218022A54BCDE90132CDE903104FF69C
:102A9000FF703F23A24A0090AFF2410001F05DFCBD
:102AA00006AAA0A13F2001F0C8FD07B000BD04E0C8
:102AB000002200F8012B4A1E91B20029F8D170477C
:102AC00030B5F0219B48FFF7F2FF9A4B03F1180550
:102AD000002408E0002018705D6097A0586118334A
:102AE0001835601C84B2092CF4D30020187058608B
:102AF00091A058618F489149086030BD30B54FF4BE
:102B0000F2618F48FFF7D3FF4FF480717748FFF7EA
:102B1000CEFF8B4B03F15805002406E05D6186A0D3
:102B2000186558335835601CC4B2152CF6D30020F4
:102B3000586181A018650020824908608048824958
:102B4000086030BD0022814B1A708149002004E0EA
:102B5000002201F8012B421CD0B20828F8D3002231
:102B60007C4B1A707C4B1A707C4B1A605E4B1A605F
:102B7000704700207A4908607A4908707A490870DD
:102B80007A4908707A4908707A4908605B49086098
:102B90005B4908605749086055490870704710B58F
:102BA000FFF7E6FBFFF7E5FFFFF7CCFFFFF7A6FF18
:102BB000FFF786FF00F0B2FE00F099FF01F095FAF2
:102BC000FFF75BFFFFF72FFFFFF7D6FB10BD10B538
:102BD0000024FFF76BFB044665480078012808D104
:102BE00060480078FF2804D25E480078401C5D49A8
:102BF00008702046FFF75EFB10BD10B500245C484E
:102C00000078012830D1FFF751FB04465548007881
:102C100020B154480078401E52490870514800784D
:102C2000F8B951480078E0B9FFF7C8FC2F484A4985
:102C3000097850F82100494908604748007845491B
:102C4000097888420DD045480068C06B401C434954
:102C50000968C86347480068401C46490860FFF798
:102C600041FB2046FFF726FB10BD10B5002440486D
:102C70000078012811D1FFF719FB04463948007884
:102C800040B939480078FF2804D237480078401C02
:102C9000354908702046FFF70DFB10BD10B5002424
:102CA0003348007801286AD1FFF700FB04462E481C
:102CB0000078C0B12C480078401E2B4908700846A7
:102CC000007860B92748007828B92046FFF7F2FA63
:102CD000FFF781FC53E02046FFF7ECFA4FE0204677
:102CE000FFF7E8FA4BE047E080000020B05D0020ED
:102CF0006C00002064000020600000207C000020A8
:102D000068000020B0590020AC5B002075432F4FB5
:102D1000532D49492053746174000000B05B0020BA
:102D2000AC5D002075432F4F532D49492049646CF9
:102D300065000000705800203F000000580000208F
:102D4000B05E00208C000020840000207100002074
:102D5000720000206F00002070000020880000201A
:102D60009C0000206D0000206E0000207B000020F1
:102D70007A000020540000202046FFF79BFA10BD87
:102D800010B5E948007890B9FFF718FCE7480078DB
:102D9000E7490870E748E549097850F82100E64915
:102DA000086008460068E5490860FFF786FA10BD2C
:102DB00010B50024022001F0C7FDFFF777FA0446A2
:102DC0000020DF4908602046FFF774FA642001F014
:102DD000BBFDFFF76BFA0446D9480068D949086083
:102DE0000120D94908702046FFF764FA10BD70B57C
:102DF0000026FFF75BFA0646D4480068401CD3491A
:102E000008603046FFF756FAC7480078012853D1CA
:102E1000CF48007820B1012804D0022809D103E06E
:102E200001250BE0002509E001250120C8490870B3
:102E300004E001250020C649087000BF00BF05B9A5
:102E400070BDC448046833E0FFF730FA0646206BD3
:102E500050B3206B401E2063206B28BB94F83400D5
:102E600000F0370040B114F8340F20F03700207024
:102E700001206070343C02E0002084F8350094F8B2
:102E8000340000F0080078B93834A078B2490978E5
:102E90000843B14908702078B049085C617808435C
:102EA00014F83819AD4A505464693046FFF702FAF5
:102EB00094F836003F28C7D100BFC1E740F2211087
:102EC0007047704710B590F8382001F10B039B5CF8
:102ED00090F83940A34301F10B04A35423469B5CB3
:102EE00023B98B7A90F83A40A3438B7210BD2DE939
:102EF000F04F05460F4690469946A87A98490E5CD1
:102F000005F10B00805D11F800B00BEBC60000F07E
:102F1000FF0A884850F82A4000202434E0602760E7
:102F2000207C20EA0800207484F81190207C243C46
:102F300000F0080068B994F83A0087490978084316
:102F4000854908708548805D94F8391008438349A5
:102F5000885529462046FFF7B5FF206A20B1204654
:102F6000216AFFF70EFBE5615046BDE8F08F10B512
:102F7000724A1268D061714A126892F8383000F1D2
:102F80000B02D25C6D4B1B6893F839301A436B4BC4
:102F90001B6893F8384000F10B031A55827A674B8F
:102FA0001B6893F83A301A438272644A126892F8A6
:102FB00038106A4A525C614B1B6893F839309A4367
:102FC000664B5A541A46525C42B95C4A126892F8EF
:102FD0003A30614A12789A435F4B1A7010BD002351
:102FE000837200F10B01002204E0002301F8013B91
:102FF000531CDAB2082AF8D3704705E011F8013BF8
:1030000000F8013B531E9AB2002AF7D170472DE910
:10301000F84F05460F4690469946DDE90AAB002079
:103020000090FFF743F900904E480468002C76D0DA
:103030001C3454F8080C4B4908600098FFF73AF923
:1030400044F81C7CA576002020766076606144F808
:1030500018BC44F810AC44F8148C0C9824F80C0CF0
:1030600024F80A9C0020E077E810207705F007009C
:10307000E076217F01208840A077E17E0120884012
:103080006077002020606060E060A0602062A06245
:103090006062E0622063AFF2603060631C3C002637
:1030A00006E0002104F1540040F82610701CC6B25E
:1030B000002EF6D02046FFF7D2F92046FFF760F940
:1030C000FFF7F4F800901B4840F8254021480068BD
:1030D00060610020A0611F48006810B11D480068B1
:1030E00084611C4804603834A0781B49097808437F
:1030F0001949087020781949085C6178084314F868
:103100003819164A505418480078401C164908705F
:103110000098FFF7CFF80020BDE8F88FFFE7009890
:10312000FFF7C8F84220F7E77A000020700000207F
:103130006F000020B05D002088000020800000208B
:103140007C000020640000206C0000209C00002017
:10315000900000208C0000207100002072000020F0
:103160008EC20008840000207B0000202DE9F05F63
:1031700004460F4691461E464FF0000B2078052866
:1031800004D0012030700020BDE8F09F09F0800AD3
:10319000BAF1000F04D029F080094FF0010801E0D6
:1031A0004FF0000800203070FFF780F88346B9F137
:1031B000000F2CD0B9F1010F3BD0B9F1020F03D0B1
:1031C000B9F1030F46D111E0208900EA0705BD429D
:1031D00006D1B8F1010F05D12089A843208101E073
:1031E000702030705846FFF765F83AE0208900EA11
:1031F000070535B1B8F1010F05D12089A843208119
:1032000001E0702030705846FFF754F829E020891B
:1032100027EA0005BD4206D1B8F1010F05D120898A
:103220002843208101E0702030705846FFF742F8B3
:1032300017E0208927EA000535B1B8F1010F05D163
:1032400020892843208101E0702030705846FFF724
:1032500031F806E05846FFF72DF800256F20307052
:1032600000BF00BF28468FE72DE9F04106460D4616
:103270000027FA48007820B1102028700020BDE80F
:10328000F081FFF713F80746F548046884B1006839
:103290004068F349086005202070268100206060A6
:1032A000F0A0E0603846FFF705F80020287004E041
:1032B0003846FEF7FFFF722028702046DFE730B562
:1032C00001464A6808682AB9CC68606028B10025C0
:1032D000456002E0106000B142608B6800259D628D
:1032E00030BDF0B506460F46B46800202C3460604F
:1032F0002780207A20F02000207200206072207A3F
:103300002C3C88B93834A078D74909780843D64985
:1033100008702078D549085C6178084314F838199A
:10332000D24A5054012500E000253046FFF7C7FF80
:103330002846F0BD2DE9F0470446894615464FF072
:10334000000AC648007820B10F2028702046BDE84A
:10335000F0872078052803D0012028702046F6E762
:10336000FEF7A4FF8246606808B1012700E000274D
:10337000B9F1000F03D0B9F1010F3CD119E08FB9B9
:10338000B8A0E06000202070B548006860600020B0
:103390002081B34804605046FEF78CFF002028705F
:1033A000002605E05046FEF785FF49202870264696
:1033B00028E0D4F8048005E000214046FFF791FFA3
:1033C000D8F80080B8F1000FF6D1A6A0E060002088
:1033D0002070A3480068606000202081A04804603D
:1033E0005046FEF767FF012F01D1FFF7F4F80020E8
:1033F0002870002606E05046FEF75CFF0720287084
:10340000264600BF00BF3046A1E72DE9F041054642
:103410000E46144600279148007820B111202070F4
:103420000020BDE8F081FEF741FF07462878052817
:1034300006D03846FEF73EFF012020700020F0E75E
:10344000E86830603068FFF737F880463846FEF7A6
:1034500031FF002020704046E3E72DE9F0410546AA
:103460000E46144600277D48007818B112202070BF
:10347000BDE8F081FEF71AFF07462878052805D039
:103480003846FEF717FF01202070F1E7EE6038465E
:10349000FEF710FF0020207000BFE9E7F0B51446EA
:1034A000059E734F3F6897F8347047F02007DFF8A8
:1034B000C0C1DCF800C08CF834700027DFF8B0C160
:1034C000DCF800C08CF83570694F3F683E63684F88
:1034D0003F68B9620C828B74654F3F688F604768A4
:1034E0000F6000274F60C860456805B169604160A2
:1034F0005F4F3F6897F838205C4FBF5CDFF870C1C2
:10350000DCF800C09CF839C027EA0C07DFF85CC182
:103510000CF802706746BF5C5FB9554F3F6897F87B
:103520003AC0514F3F7827EA0C07DFF83CC18CF8CE
:103530000070F0BD2DE9F04F89B005460F46914669
:103540009A46129E002002904448007828B102203A
:103550003070002009B0BDE8F08F4648007818B1FF
:103560000D2030700020F5E72878052803D00120D1
:1035700030700020EEE709F0800BBBF1000F04D0A3
:1035800029F080094FF0010801E04FF00008FEF734
:103590008DFE0290B9F1000F4AD0B9F1010F78D039
:1035A000B9F1020F03D0B9F1030F71D120E02889DE
:1035B00000EA0704BC420FD1B8F1010F02D12889FB
:1035C000A04328812A48006884850298FEF772FE8D
:1035D000002030702046BDE74B463A4604A92846F5
:1035E000CDF800A0FFF75AFF0298FEF763FE78E0DF
:1035F000288900EA07047CB1B8F1010F02D12889BB
:10360000A04328811A48006884850298FEF752FE7C
:103610000020307020469DE74B463A4604A92846D4
:10362000CDF800A0FFF73AFF0298FEF743FE58E0FE
:10363000288927EA0004BC421ED1B8F1010F02D14B
:103640002889204328810A48006884850298FEF76B
:1036500031FE0020307020467CE71AE06D0000202B
:103660005C0000203F00000071000020720000207C
:10367000800000206E0000204B463A4604A92846F0
:10368000CDF800A0FFF70AFF0298FEF713FE28E02E
:103690001FE0288927EA00047CB1B8F1010F02D1AC
:1036A000288920432881AD48006884850298FEF768
:1036B00001FE0020307020464CE74B463A4604A9F4
:1036C0002846CDF800A0FFF7E9FE0298FEF7F2FDCC
:1036D00007E00298FEF7EEFD00246F2030702046D0
:1036E00038E700BFFEF777FFFEF7E0FD02909B484A
:1036F000006890F8350020B39848006890F83500CD
:10370000039000209549096881F8350004A8FFF767
:10371000D6FD00209149096881F834000298FEF72F
:10372000C9FD00240398012805D0022802D10E20EB
:10373000307003E000BF0A20307000BF00BF204699
:1037400008E786480068848DB8F1010F1ED1B9F1F1
:10375000000F0ED0B9F1010F0CD0B9F1020F03D058
:10376000B9F1030F0AD100E000BF2889A0432881E6
:103770000BE000BF28892043288106E00298FEF76D
:1037800099FD6F2030700020E4E600BF0298FEF73C
:1037900091FD002030702046DCE670B50025FEF774
:1037A00085FD05466D480068848D2846FEF782FD3C
:1037B000204670BD2DE9FC5F0446894692461E46B0
:1037C000002000902078052804D0012030700020CF
:1037D000BDE8FC9FFEF76AFD0090BAF1000F03D030
:1037E000BAF1010F0AD104E0208920EA0900208102
:1037F0000BE0208940EA0900208106E00098FEF7EE
:1038000059FD712030700020E2E700BF4FF0000B3F
:10381000656855E0A87C40B3012838D0022802D062
:10382000032844D111E02089298A00EA0107288A67
:10383000B84209D139462846FFF753FD8046B8F112
:10384000010F01D14FF0010B38E02089298A00EAED
:1038500001074FB139462846FFF743FD8046B8F1CE
:10386000010F01D14FF0010B28E0288A218920EABD
:103870000107288AB84209D139462846FFF731FDA9
:103880008046B8F1010F01D14FF0010B16E0288AF4
:10389000218920EA01074FB139462846FFF721FD6B
:1038A0008046B8F1010F01D14FF0010B06E00098FE
:1038B000FEF700FD6F203070002089E700BF2D6803
:1038C000002DA7D10098FEF7F5FCBBF1010F01D147
:1038D000FEF781FEFEF7EAFC009020890190009837
:1038E000FEF7E8FC00203070019871E72DE9F04107
:1038F00004460D4600272078052804D001202870B2
:103900000020BDE8F081FEF7D1FC07462689384645
:10391000FEF7D0FC002028703046F2E770B5502149
:103920000F48FFF7C4F80E4C04F11006002509E01B
:10393000002020706660AFF2D420E06010341036B2
:10394000681C85B2042DF3D3002020706060AFF2B4
:10395000EC20E06002480349086070BD8000002050
:10396000605900205C0000202DE9F84F05460F4605
:1039700090469A4600200090FEF798FC00906B4815
:103980000468006820B169480068406867490860B9
:103990000098FEF78FFC2CB95A208AF8000000200E
:1039A000BDE8F88F2E4605EB08094FF0000B05E047
:1039B000C6F800904E46C1440BF1010B781E5845E5
:1039C000F6D800203060256065602761E760C4F8A4
:1039D00008808AF800002046E2E72DE9F04104461D
:1039E0000D460027FEF762FC0746206968B166684D
:1039F000306860602069401E20613846FEF75AFC3E
:103A0000002028703046BDE8F0813846FEF752FCB1
:103A10005D2028700020F6E72DE9F04106460C46AF
:103A2000154600274248007820B111202870002058
:103A3000BDE8F081FEF73AFC074670692060206817
:103A4000FEF73AFD80463846FEF734FC0020287029
:103A50004046EDE72DE9F04105460E4614460027A5
:103A60003348007818B112202070BDE8F081FEF7CD
:103A70001DFC07466E613846FEF71CFC00202070D6
:103A800000BFF2E770B504460D460026FEF70EFCB7
:103A90000646D4E90310884204D33046FEF70AFCF8
:103AA0005E2070BD6068286065602069401C2061F0
:103AB0003046FEF7FFFB0020F3E770B505460C46E5
:103AC0000026FEF7F3FB0646286820606868606001
:103AD000A868A060E868E060286920613046FEF7C9
:103AE000E9FBD4E90301401A6061002070BD70B5A4
:103AF00078211048FEF7DBFF0E4C00250BE0681C18
:103B000000EB40000B4901EBC00060600AA060615F
:103B10001834681C85B2042DF1D30020606006A023
:103B2000606104480149086070BD000094000020F5
:103B30006D000020406600203F0000002DE9F041AC
:103B400006460D464FF000083078022804D00120C8
:103B500028700020BDE8F081FEF7A8FB804674685D
:103B6000E08A78B12169081D20610F68E08A401E53
:103B7000E082A1682069884201D16068206100204C
:103B8000287002E01F20287000274046FEF792FBB5
:103B90003846DFE72DE9F04106460F464FF00008B2
:103BA000F748007810B10020BDE8F081FEF77EFBF9
:103BB0008046F4480468006820B1F2480068406814
:103BC000F04908604046FEF775FBFCB1FEF76EFB5E
:103BD0008046ED480568D5B100680068EA4908608C
:103BE0004046FEF767FB6E6006EB8700A860EE605C
:103BF0002E61AF820020E882022020700020208108
:103C00006560E2A060612046FFF7E9F908E0DD4861
:103C100000686060DB4804604046FEF74BFB002410
:103C20002046C1E72DE9F0470446894615464FF086
:103C3000000A2078022804D0012028702046BDE820
:103C4000F087CF48007818B10F2028702046F6E79B
:103C5000FEF72CFB8246A07A10B14FF0010801E07C
:103C60004FF00008B9F1000F03D0B9F1010F49D1AD
:103C700021E0B8F1000F17D1C4A060616668C248A6
:103C800000683060C048066000202070BD480068B1
:103C9000606000202081BB4804605046FEF70AFBAC
:103CA00000202870002705E05046FEF703FB49205E
:103CB000287027462DE005E00023042219462046FF
:103CC000FFF715F9A07A0028F6D1B0A06061666808
:103CD000AD4800683060AC48066000202070A948FC
:103CE0000068606000202081A64804605046FEF70E
:103CF000E1FAB8F1010F01D1FEF76DFC0020287048
:103D0000002706E05046FEF7D5FA07202870274620
:103D100000BF00BF384692E770B505460026FEF7A3
:103D2000C5FA06466C686068E06060682061002043
:103D3000E0823046FEF7BEFA002070BD2DE9F04764
:103D40000746884615464FF000093878022804D007
:103D5000012028700020BDE8F0878948007818B15C
:103D6000022028700020F6E78948007818B10D205D
:103D700028700020EFE7FEF799FA81467C68E08A18
:103D800098B12169081D20610E68E08A401EE0821A
:103D9000A1682069884201D1606820614846FEF729
:103DA00089FA002028703046D5E77A48006890F8F4
:103DB000340040F004007749096881F8340000209D
:103DC0007449096881F8350072480068C0F830808D
:103DD0003846FFF7CCF84846FEF76CFAFEF7FBFBD7
:103DE000FEF764FA81466B48006890F8350020B110
:103DF00001280DD002280AD105E066480068466A0D
:103E0000002028700DE000260E20287009E000BF79
:103E1000394660480068FFF755F800260A202870E8
:103E200000BF00BF00205B49096881F83400594990
:103E3000096881F8350057490968C861554909681A
:103E400008625449096848624846FEF733FA30462A
:103E500081E72DE9F04104460F4615464FF0000872
:103E60002078022804D0012028700020BDE8F081CD
:103E7000FEF71CFA8046A07A20B300267FB1012FFE
:103E80000CD107E00223042200212046FFF72FF87F
:103E9000701CC6B2A07A0028F4D109E000BF02234A
:103EA000042200212046FFF722F8701CC6B200BF92
:103EB00000BF4046FEF7FEF9FEF78DFB0E2028708E
:103EC0003046D3E74046FEF7F5F90020287000BFE2
:103ED000CCE72DE9F04105460E4600272878022858
:103EE00002D00120BDE8F081FEF7E0F90746A87A8C
:103EF00060B10023042231462846FEF7F8FF384619
:103F0000FEF7D8F9FEF767FB0020EBE76C68E08A64
:103F1000A18A884204DB3846FEF7CCF91E20E1E78F
:103F2000E168081DE0600E60E08A401CE082D4E990
:103F30000210884201D16068E0603846FEF7BAF9A5
:103F40000020CFE72DE9F04105460E4600272878EE
:103F5000022802D00120BDE8F081FEF7A7F907464C
:103F6000A87AC8B10023042231462846FEF7BFFFD5
:103F70003846FEF79FF9FEF72EFB0020EBE7000026
:103F80006D00002058000020980000203F00000035
:103F90006E000020800000206C68E08AA18A8842C0
:103FA00004DB3846FEF786F91E20D4E761682069F5
:103FB000884201D1A06820612069001F206120692A
:103FC0000660E08A401CE0823846FEF773F9002064
:103FD000C1E72DE9F04105460F4616464FF00008AF
:103FE0002878022802D00120BDE8F081FEF75EF9B2
:103FF0008046A87AE8B106F0010050B105E0002340
:10400000042239462846FEF772FFA87A0028F6D126
:1040100005E00023042239462846FEF768FF4046A3
:10402000FEF748F906F0040008B9FEF7D4FA0020BC
:10403000DAE76C68E08AA18A884204DB4046FEF732
:1040400039F91E20D0E706F0020058B161682069F6
:10405000884201D1A06820612069001F2061206989
:10406000076009E0E168081DE0600F60D4E9021014
:10407000884201D16068E060E08A401CE0824046EE
:10408000FEF718F90020AFE72DE9F04705460C468A
:104090004FF0000A2878022802D00120BDE8F087FE
:1040A000FEF704F98246A87A207405F10B0804F1A2
:1040B0000809002705E018F8010B09F8010B781C26
:1040C000C7B2082FF7D36E68F08A18B1306900685C
:1040D000206001E000202060F08AA080B08AE080AB
:1040E0005046FEF7E7F80020D8E770B560210A488F
:1040F000FEF7DDFC084C04F11806002504E02660FC
:1041000018341836681C85B2032DF8D300202060BF
:1041100001480249086070BDB86600209800002080
:104120002DE9F34F85B0884600200190FEF7BEF8D8
:104130000190FE4850F8280030B10198FEF7BAF817
:10414000282007B0BDE8F08F0598FF2804D1F84873
:10415000006890F836000590F449059851F8205011
:1041600025B90198FEF7A6F82920EAE7012D04D128
:104170000198FEF79FF84320E3E74FEAE80708F0CD
:10418000070003900120B84000F0FF0901210398C7
:10419000814001F0FF0A0021E44A059842F820100E
:1041A000104640F8285095F8386095F83A0002908B
:1041B00095F839B0DF48805D00EA0B00D0B1DD48EA
:1041C000805D20EA0B00DB4988550846805D28B9F0
:1041D000D948007802998843D7490870D6480078B2
:1041E00040EA0900D4490870D248C05D40EA0A009C
:1041F000D049C855EC69D4B104F10B00805D20EAC8
:104200000B0004F10B0188550846805D18B9A07AAF
:1042100002998843A072A07A40EA0900A07204F1D2
:104220000B00C05D40EA0A0004F10B01C855286A82
:1042300030B3286A0490049804681FE004F10B006E
:10424000805D20EA0B0004F10B0188550846805D73
:1042500018B9A07A02998843A072A07A40EA0900AE
:10426000A07204F10B00C05D40EA0A0004F10B01EA
:10427000C8550498001D049004980468002CDDD1F2
:1042800085F8368085F83870039885F8370085F80A
:104290003A9085F839A00198FEF70CF8A748007805
:1042A000012801D1FEF797F900204AE72DE9FE4FDA
:1042B00006460F4690461C464FF00009FDF7F6FFF4
:1042C00081469F48007828B14846FDF7F3FF3C201F
:1042D000BDE8FE8F954850F8240060BB012093494B
:1042E00041F824004846FDF7E5FF002342463946E1
:1042F0003046FEF74AF882460020009001900346BF
:104300000246514602902046FEF781FE054635B929
:104310008A48007801280CD1FEF75DF909E0FDF725
:10432000C5FF81460020814941F824004846FDF739
:10433000C1FF2846CCE74846FDF7BCFF2820C7E769
:1043400002F0010343B102F002032BB102E0491E67
:10435000002308C00029FAD170472DE9F04F85B03D
:1043600081468A4693461C46DDE90F78129D00205F
:104370000390FDF79BFF03907148007830B10398DC
:10438000FDF798FF3C2005B0BDE8F08F674850F876
:10439000240088BB0120654941F824000398FDF7FB
:1043A00089FF2A4641463846FFF7CAFF2B465A4640
:1043B00051464846FDF7E9FF04901198CDE9008089
:1043C00002953A4620460E9B0499FEF720FE0646CB
:1043D00036B95A48007801280CD1FEF7FCF809E0FC
:1043E000FDF764FF03900020504941F82400039832
:1043F000FDF760FF3046C6E7FFE70398FDF75AFF79
:104400002820C0E72DE9F041054600274C480078F8
:1044100010B14020BDE8F0813F2D01D13E20F9E7E9
:10442000FDF744FF0746FF2D03D14148006890F88F
:1044300036503E4850F8254024B93846FDF73AFF3B
:104440004320E7E7012C04D13846FDF733FF3D2038
:10445000E0E714F8380F3749085C61788843217821
:10446000344A505414F838091146085C30B994F8AD
:104470003A103148007888432F490870E06918B134
:104480002046E169FEF71EFD206A18B12046216A28
:10449000FEF777F8A66A16B13046FEF710FF002047
:1044A000206384F8340084F8350026480078FF281B
:1044B00004D224480078401C224908703846FDF791
:1044C000F9FEFEF7FEFCFDF7F1FE07461D480078F9
:1044D00020B11C480078401E1A4908702046FDF79C
:1044E00050FF19480078401E1749087000200F49F6
:1044F00041F82500A06930B900206169886113493D
:104500006069086005E0D4E905014861D4E9051057
:1045100088610F48006860610D4804600DA0206547
:104520003846FDF7C7FE0548007815E0B05D00206D
:104530008000002072000020710000207A0000201E
:104540006D0000206E0000207B0000208C00002009
:10455000840000203F000000012801D1FEF73BF855
:10456000002057E72DE9F041044600273F2C02D1F7
:104570003E20BDE8F081FF2C0BD1FDF797FE0746EA
:10458000EB48006890F83B603846FDF793FE3046F4
:10459000EFE7FDF78BFE0746E64850F8245025B9B3
:1045A0003846FDF787FE4320E3E7012D04D1384666
:1045B000FDF780FE3D20DCE73F2085F83B003846D4
:1045C000FDF778FE0020D4E72DE9F04706460F46B8
:1045D00014464FF00008D848007820B11120207010
:1045E0000020BDE8F087FDF761FE8046FF2E03D175
:1045F000CF48006890F83660CE4850F8265035B95C
:104600004046FDF757FE432020700020E9E7012DCA
:1046100006D14046FDF74EFE432020700020E0E723
:10462000286D38603868FDF747FF81464046FDF742
:1046300041FE002020704846D3E72DE9F0410646B0
:104640000F4614464FF00008BB48007818B11220FE
:104650002070BDE8F081FDF729FE8046FF2E03D1D2
:10466000B348006890F83660B24850F826502DB92B
:104670004046FDF71FFE43202070EAE7012D05D1DB
:104680004046FDF717FE43202070E2E72F654046C5
:10469000FDF710FE0020207000BFDAE770B5054678
:1046A0000026FDF703FE0646A24850F8254024B92F
:1046B0003046FDF7FFFD462070BD012C04D1304689
:1046C000FDF7F8FD4320F7E794F8340000F0080008
:1046D00060B314F8340F20F00800207014F8340987
:1046E000F8B9206BC8B93834A078944909780843E0
:1046F0009249087020789249085C6178084314F860
:1047000038198F4A50543046FDF7D4FD8D48007853
:10471000012809D1FDF75FFF06E03046FDF7CAFD2D
:1047200002E03046FDF7C6FD0020C5E73046FDF744
:10473000C1FD4420C0E72DE9F04707460D464FF084
:10474000000A002028606860FDF7B0FD8246FF2F58
:1047500003D17748006890F83670764850F82740C3
:104760002CB95046FDF7A6FD4320BDE8F087012C8B
:1047700004D15046FDF79EFD4320F6E7207C00F073
:10478000010020B95046FDF795FD4520EDE70026D4
:10479000D4F80C90D4F808805046FDF78BFD00E06B
:1047A000761C58F8041B0029FAD0B0002860A9EB49
:1047B0000600800068600020D7E72DE9F04105463B
:1047C0004FF00008FDF772FD8046FF2D05D15848D7
:1047D000006890F83650012608E05548006890F8C7
:1047E0003600A84201D1012600E00026514850F8C9
:1047F00025402CB94046FDF75DFD4820BDE8F0811D
:10480000012C04D14046FDF755FD4320F6E794F80E
:1048100038704B48C05D94F8391088434849C855F2
:104820000846C05D30B994F83A104448007888438F
:104830004249087094F8340040F0080084F83400CD
:104840004046FDF737FD012E01D1FDF7C4FE0020E3
:10485000D4E72DE9F04105460E460027FDF726FD79
:104860000746FF2D03D13248006890F83650314892
:1048700050F825402CB93846FDF71CFD2920BDE82D
:10488000F081012C04D13846FDF714FD4320F6E7F2
:10489000582221463046FEF7B0FB3846FDF70AFDA8
:1048A0000020ECE72DE9F04704460E4617464FF08E
:1048B0000009FDF7FBFC8146FF2C02D11C4805686E
:1048C00002E01C4850F8245005F1540050F82680AE
:1048D0004846FDF7EFFC002038704046BDE8F08701
:1048E0002DE9F04704460E46174698464FF000095A
:1048F000FDF7DCFC8146FF2C02D10D48056802E083
:104900000C4850F8245005F1540040F826704846F1
:10491000FDF7D0FC002088F80000BDE8F08710B556
:1049200003480068FDF72FFDFF20FFF76BFD10BD6A
:1049300080000020B05D00206D000020710000208C
:10494000720000207A00002070B5054600265E48FF
:10495000007800B170BD1DB3FDF7A8FC06465B48AA
:10496000006890F838405A48005D5849096891F845
:1049700039108843564908550846005D40B95348E8
:10498000006890F83A1053480078884351490870FD
:104990004E48006805633046FDF78CFCFDF71BFEB2
:1049A00000BFD7E72DE9F04105460E4617461C46E5
:1049B0004548007810B15520BDE8F0814FF47A7079
:1049C00060434FF47A71B0FBF1F14FF461606843DA
:1049D000C6EB061200EB8200384400EB4002C2EB4B
:1049E000C01001EBC0084046FFF7AEFF0020E3E730
:1049F00070B5054600263F2D01D32A2070BDFDF776
:104A000055FC0646344850F8254024B93046FDF799
:104A100051FC4320F2E7012C04D13046FDF74AFC5B
:104A20004320EBE7206B20B93046FDF743FC5020D4
:104A3000E4E70020206394F8340000F0370040B130
:104A400014F8340F20F03700207001206070343CDF
:104A500002E0002084F8350094F8340000F00800EB
:104A6000A8B93834A0781B49097808431949087057
:104A700020781749085C6178084314F83819144AFB
:104A800050543046FDF716FCFDF7A5FD02E0304618
:104A9000FDF710FC0020B1E770B50025FDF706FC1E
:104AA00005460E4804682846FDF704FC204670BD04
:104AB00070B504460025FDF7F9FB0546074804607C
:104AC0002846FDF7F7FB70BD6D0000208000002038
:104AD0007200002071000020B05D00209C000020CA
:104AE000704710B5416A01220A7100224A713022D2
:104AF000125C13062E22125C43EA02432D22125C42
:104B000043EA02222F231B5C1A43436A13B1436A10
:104B10005B7A00E000231A440A23B2FBF3F403FBA0
:104B20001422CA804A7A0A2A02DD4FF41672CA8019
:104B300010BD2DE9F04105460E462F214A5D30217A
:104B4000495D42EA0121CE4A881800F0A9FA0746D9
:104B500000F0ABFB0446686A407A0444A0B2C9493D
:104B600040EA0104C648844201D204F57E44C648A6
:104B7000844201D9A4F57E4400BF00BF204600F066
:104B80008FFA3060BDE8F08170B505466C6A00268A
:104B9000284602F0E8FB10B1284602F0D8FB0020BE
:104BA0006860A860E8606CB90A2002F007FA044661
:104BB00014B94FF0FF3070BD00202060606020818C
:104BC0006C6205E000202071E0806071206020723E
:104BD00021462846FFF7ADFF607A401C60722846E8
:104BE000FFF77FFF3046E6E71FB504460122A74BDB
:104BF000606ACDE9000304F12B03CDE90202A44A67
:104C00001946204606F0C1F804B010BD70B5044640
:104C1000012575B1606A007A002803DD2046FFF7A0
:104C2000B3FF09E02046FFF7DFFF6420616A0872E6
:104C300002E02046FFF7A8FF70BD1FB50446012122
:104C4000924A944B606ACDE90032CDE9020104F149
:104C50002B038F4A1946204606F097F804B010BD82
:104C60007CB50446656A8C4800F01AFA0190002071
:104C700000F016FA00902946204602F08DFA01A9AC
:104C8000204602F083FA6946204602F079FA20466F
:104C900002F047FB00207CBD10B50446606A40B1BD
:104CA000606A007928B1204602F051FB2046FFF7E8
:104CB00018FF10BD10B504460020616A0871204637
:104CC00002F045FB002010BD10B5744804687BE07D
:104CD000606A002877D0606A007A002804DD606A84
:104CE000007A401E616A0872606A0079012802D069
:104CF000022867D13DE0606AC088002805DD606A4F
:104D0000C088401E616AC88032E0606A407903282A
:104D100009DB0220616A08710020616A4871142071
:104D2000616AC88024E02046FFF787FF606A407907
:104D3000401C616A48713020005D01062E20005D34
:104D400041EA00412D20005D41EA00202F21095D4C
:104D50000843616A11B1616A497A00E000210844A0
:104D60000A21B0FBF1F201FB12000A30616AC8802F
:104D700028E0606AC088002805DD606AC088401E9F
:104D8000616AC8801DE0606A407918B92046FFF763
:104D900067FF02E02046FFF727FF1420616AC88002
:104DA000606A4079401C616A4871606A40790228F3
:104DB00007DB0320616A08710020616A4871616A3B
:104DC000C88000BF00BF2468002C81D110BD7FB512
:104DD00004460D46606A002850D0606A00790028B9
:104DE0004CD094F82B008DF800002C20005D8DF83D
:104DF00001002D20005D8DF802002E20005D8DF851
:104E000003002F20005D8DF804003020005D8DF838
:104E10000500D5F80E000390A8690290606A007939
:104E2000012806D0606A0079022817D1606A4079AB
:104E3000A0B90398616A096888420BD00298616A38
:104E40000968884219D1062205F10801684607F071
:104E5000A5F990B12046FFF797FE0EE00398616A2E
:104E60000968884209D1062205F10801684607F061
:104E700095F910B12046FFF7C9FE00BF7FBD0000C5
:104E80000001FEA90000FEA9FFFEFEA9D4C3000890
:104E9000CEC300088EC300080000FFFFC80000203A
:104EA0002DE9FF5F054689466C68208800F0F7F918
:104EB000C0F303204FEA8008C8F10001284602F041
:104EC000A5FB10B92889042800D298E0686890F8FA
:104ED00000A0BAF1080F7CD101264FF0704000F01D
:104EE000E4F9216900EA010B4FF0604000F0DDF9C0
:104EF000834500D10026494604F1100000F02CFC47
:104F000000B1002626B9284602F03EFABDE8FF9F10
:104F10002889082800D272E0284600F04FFA18B11C
:104F2000284602F031FAF1E72221284602F06EFB12
:104F300048B34146284602F069FB10B100BF00BFEC
:104F400061E029890022022002F055FA064606B9DE
:104F500059E000BF00BF2946304602F0E7FB10B120
:104F600000BF00BF4FE07468C8F1000001B23046D6
:104F700002F04CFB10B100BF00BF44E0284602F035
:104F800003FA354608E06FF02101284602F03EFBA7
:104F900010B100BF00BF36E06F68E0680390206981
:104FA000E06003982061002038707880208900F04C
:104FB00076F9C0B240F47F46304600F06AF92081AD
:104FC000002060814146284602F020FB10B100BF5E
:104FD0000EE00EE001200021FF230A46CDE9010981
:104FE000009104F10C01284600F016FB064600BFB4
:104FF00000E000BF00BF284602F0C6F986E7284659
:1050000002F0C2F982E7284602F0BEF900BF7DE750
:105010002DE9FC4706460F46904600222421012038
:1050200002F0E9F905460DB9BDE8FC8700BF00BFF5
:10503000D6F804906C68277084F801800020A08066
:10504000E08071686A6802F108001C2207F082F8AB
:10505000002060806989204600F0A6F96080012068
:105060000021FF2309F10C02CDE90010284600F0D1
:105070004EFB284602F088F900BFD5E770B505461B
:105080000C46224603212846FFF7C2FF70BD70B5CB
:1050900005460C4622460B212846FFF7B9FF70BD96
:1050A0000146080601F47F4240EA022001F47F0233
:1050B00040EA122040EA116070472DE9FF410546A1
:1050C0000F466E462B7800BF302B01DB392B03DDFA
:1050D000002004B0BDE8F08100244FF00A08302B16
:1050E0000ED1681C05460378782B01D0582B05D1CA
:1050F0004FF01008681C0546037801E04FF00808DF
:1051000000BF302B09DB392B07DCA3F1300004FB97
:105110000804681C05460378F3E7B8F1100F1BD1AB
:10512000302B01DB392B07DD612B01DB662B03DD27
:10513000412B11DB462B0FDC612B03DB7A2B01DCCF
:10514000612100E0412103F10A00401A40EA041401
:10515000681C05460378D4E700BF00BF2E2B09D199
:1051600003A8864201D30020B3E710C6681C054699
:105170000378A9E700BF00BF6BB1202B0BD00C2B2D
:1051800009D00A2B07D00D2B05D0092B03D00B2BF0
:1051900001D000209DE76846301A012101EBA000F4
:1051A00005282AD2DFE800F00305060F1B000020C7
:1051B0008FE722E0B4F1807F01D3002089E70098D7
:1051C00044EA006419E0B4F5803F01D3002080E791
:1051D00000980006019940EA014004430DE0FF2CCD
:1051E00001D9002075E700980006019940EA0140C6
:1051F000029940EA0120044300BF00BF1FB12046CE
:10520000FFF74EFF3860012063E718B50446694692
:105210002046FFF752FF08B1009818BD4FF0FF304D
:10522000FBE7F1B582B002980190234901AA00245E
:1052300027E0002300BF10780A2690FBF6F706FB54
:105240001700C5B2107890FBF6F0107005F1300031
:10525000C7B218465E1CF3B20DF800701078002833
:10526000E9D103E01DF8030001F8010B181EA3F1BA
:105270000106F3B2F6D12E2001F8010B521C601C7E
:10528000C4B2042CD5DB0026481E014606700A482D
:10529000FEBD01460806000C40EA1120704700B52B
:1052A00002461046FFF7F5FF00BD00B5034618465D
:1052B000FFF7F6FE00BD0000186700202DE9F04161
:1052C00080460E460024454608E0287807026D1CFB
:1052D000287807436D1C3C44B01E86B2012EF4DCD6
:1052E000002E02DD287807023C44A0B200EB1444F3
:1052F000200C000410B1A0B200EB1444A0B2FFF7E0
:10530000C8FFBDE8F0812DE9F05F80460E461746E4
:105310009946DDF828B00024A246454618E0698980
:105320006868FFF7CBFF0444A0B200EB144468891F
:1053300000EBD0714910A0EB410141B1CAF101006D
:1053400000F0FF0AE0B2C4F3072141EA00242D680F
:10535000002DE4D1BAF1000F04D0E0B2C4F307216C
:1053600041EA0024308880B2044430684FF6FF716F
:1053700001EA10400444388880B20444386801EAE5
:10538000104004444846FFF784FF04445846FFF7A2
:1053900080FF0444A0B200EB1444A0B200EB14441C
:1053A000E04380B2BDE8F09F70B504460D46294643
:1053B0002046FFF783FFC04380B270BD2DE9F04166
:1053C000064600240027354617E069896868FFF71C
:1053D00075FF0444A0B200EB1444688900EBD0715F
:1053E0004910A0EB410139B1C7F10100C7B2E0B2E9
:1053F000C4F3072141EA00242D68002DE5D127B12F
:10540000E0B2C4F3072141EA0024E04380B2BDE8E2
:10541000F081000070B50546CA4804680EE02046D9
:1054200001F0A1FF48B12868A1680840D4E9011241
:105430001140884201D1204670BD2468002CEED175
:10544000C148006820B1C048006801F08CFF08B96D
:105450000020F1E7BC480068EEE72DE9F05F064662
:105460000F464FF0010A74682088FFF718FF0421E7
:10547000B1EB203F05D0304601F086FF0020BDE8AB
:10548000F09F2088FFF70BFFC0F303284FF6FF7053
:1054900000EA88086088FFF702FF8146708940456E
:1054A00002DB3089484504DA304601F06DFF002008
:1054B000E5E74946304602F06DF84FF0010B3D46F6
:1054C00000BF284601F04FFF70B1281D60B1686829
:1054D00050B120696968884205D0294604F110005E
:1054E00000F03AF900B10DE0BBF1000F04D04FF02D
:1054F000000B9448056800E02D68BD4200D12D687E
:10550000002DDED100BF7DB92089FFF7C8FEC0B2F3
:10551000112809D104EB08014888FFF7C0FE442890
:1055200002D13D464FF0000ABAF1000F19D0E068F1
:10553000B8B1394604F10C0000F00EF960B94FF033
:105540007040FFF7B2FEE16800EA010B4FF06040E7
:10555000FFF7ABFE834504D1304601F015FF002074
:105560008DE725B9304601F00FFF002087E743F6AD
:10557000FF70FFF78EFEE188084038B1304600F03A
:1055800094FA06460EB9002079E774686F48076000
:105590006F4804603946304602F0C4F9A8BB208940
:1055A000FFF77DFEC0B201280DD0062806D01128D5
:1055B0000ED13946304604F0FFFE25E0394630462C
:1055C00003F06CFF20E039463046FFF769FC1BE032
:1055D000394604F1100000F0BFF888B94FF0704070
:1055E000FFF763FE216900EA010B4FF06040FFF70F
:1055F0005CFE834504D0746002213046FFF73EFD17
:10560000304601F0C1FE00BF00BF00204F490860D6
:105610004F49086000BF32E72DE9F05F06460F46AC
:1056200090469A460C9DB8F1000F5BD04FF01409DC
:105630001421304601F0EAFF18B16FF00100BDE817
:10564000F09F746800BF00BF2089FFF728FE6AF34F
:105650001F208346FFF71DFE20812089FFF71FFED4
:1056600001120B9840EA012B5846FFF712FE2081E9
:10567000B8F1000F01D1002001E0D8F8000020614E
:10568000CB464FEAE97109EB917189104FF48042E2
:1056900042EA01210A9A114388B2FFF7FAFD2080FD
:1056A0003089FFF7F6FD60800020E08029480088FF
:1056B000FFF7EFFDA08027480088401C254908809F
:1056C0000FB1386830B9281D08B9002000E06868BB
:1056D000E06004E00FB9002000E03868E0600020DE
:1056E000608102E0746804F11008288D48B13089A7
:1056F000298D884205DD42462946304600F0A2FA4F
:105700009DE74246314628466B69984797E72DE961
:10571000FE4F05460E4614461F46DDE90C8920461D
:10572000FFF778FEB0F1000A02D1001FBDE8FE8F3E
:105730003B462246314628468DE80007FFF76CFFBE
:10574000F4E70000C8000020CC000020A0000020EA
:10575000A4000020A800002030B503461A68D043FA
:1057600000B10AB9012030BD91F8310000F002000B
:1057700008B90020F7E74868904201D10020F2E71D
:1057800018688C682040D1E901452C40A04208D11E
:10579000886822EA00008D68EC43A04201D1012014
:1057A000E1E70020DFE7000070B504460D46FE4843
:1057B0000068A04203D1FC492068086003E000BFF4
:1057C00000BF206828602146052001F0C2FC70BDA2
:1057D0002DE9F04704468846002600BF00BFB8F117
:1057E000000F01D000BF00BF60684768B88898B953
:1057F000656838686060142204F10801686806F082
:10580000A9FC01212846FFF742FC284601F03DFF94
:105810000644284601F0B8FD65680AE06F68A946AD
:105820003D68484601F031FF0644484601F0ACFDB2
:1058300000BF002DF2D141462046FFF7B5FF00BF63
:1058400000BFDA480088801BD84908803046BDE890
:10585000F08770B50025D44804680FE0E07F002889
:1058600005DDE07F401EE0772546246806E02646F9
:10587000246829463046FFF7ABFF00BF002CEDD16E
:1058800070BD2DE9F05F05468946002700BF002660
:10589000B346B246C44804681DE06069E9688842BE
:1058A00007D1A0692969884203D1A089A9888842C3
:1058B00001D0012000E0002048B10AF1010A0EB930
:1058C000264604E0E07FF17F884200DC264620681F
:1058D00000B1A3462468002CDFD12EB159463046D2
:1058E000FFF776FF804647444F4502DABAF1010FD1
:1058F000CDDC3846BDE8F09F70B505460E46052064
:1059000001F013FC044664B931462846FFF7B9FF9D
:10591000B04203DB052001F008FC04460CB900206E
:1059200070BD2021204606F02EFC0320E0779E4823
:10593000006820609C4804601422294604F1080095
:1059400006F008FC2046EBE72DE9FE4F81460E46A7
:10595000002501200090D6F804A0BAF80200FFF755
:105960009EFC8346BAF80000FFF799FCC0F30320C1
:10597000ABEB800080B20190BAF80600FFF78FFC15
:10598000C0F30C004FF6FF7101EAC000029000BFA7
:1059900000BF7468002020600298A080DDE901103B
:1059A0000844E080D9F804802AE0D8F80470A08880
:1059B000B988884210DAC4F8008055B1A088E98817
:1059C000884203DBE088B988884200DD60E02E6011
:1059D00001E0C9F8046016E0A088B988884200D1C7
:1059E00056E0A088F988884200DA51E02DB1E888B5
:1059F000B988884201D000200090D7F800803D4649
:105A0000B8F1000FD1D100BFB8F1000F0ED14DB1E8
:105A100000BF00BF2E60E888A188884206D0002021
:105A2000009003E000BF00BFC9F8046099F81E00B1
:105A300000F0010050B3009828B3D9F80400406882
:105A4000808810B1002000901DE02546D4F8008029
:105A50000BE0D8F80440E888A188884202D00020F2
:105A6000009005E02546D4F80080B8F1000FF0D191
:105A700000BF009838B100BF00BF00BF00BF00BF2B
:105A800000BF00BF00BF0098BDE8FE8F0020FBE70D
:105A9000304601F0FAFD45490988081A4349088053
:105AA000304601F071FC0020EEE72DE9FC5F8046F6
:105AB00000200090D8F804502888FFF7F0FBC0F3CE
:105AC00003201421B1EB800F00D0B6E0E888FFF787
:105AD000E6FBC0F30C004FF6FF7101EAC00A6888CC
